:100000000C9481000C94A9000C94A9000C94A900F4
:100010000C94A9000C94A9000C94A9000C94A900BC
:100020000C94A9000C94A9000C94A9000C94A900AC
:100030000C94A9000C94A9000C94A9000C94A9009C
:100040000C94DA0E0C94A9000C94B20C0C94A90038
:100050000C94A9000C94A9000C94A9000C94A9007C
:100060000C94A9000C94A9000000000024002700B3
:100070002A0000000000250028002B0000000000DE
:1000800023002600290004040404040404040202DA
:100090000202020203030303030301020408102007
:1000A0004080010204081020010204081020000012
:1000B0000007000201000003040600000000000029
:1000C0000000494E46494E4954594E414ECDCCCC84
:1000D0003D0AD7233C17B7D13877CC2B329595E61C
:1000E000241FB14F0A000020410000C84200401CFC
:1000F0004620BCBE4CCA1B0E5AAEC59D7400FA0900
:100100006B0D11241FBECFEFD8E0DEBFCDBF14E0D2
:10011000A0E0B1E0ECEEF4E202C005900D92AC3646
:10012000B107D9F715E0ACE6B4E001C01D92A936DD
:10013000B107E1F710E0C2E0D1E004C02297FE0170
:100140000E942E12CE3FD107C9F70E94AB0C0C942F
:1001500074120C940000662777270C94AF00A0E07F
:10016000B0E0E5EBF0E00C944312EC015B016115AB
:10017000710519F0FB0191838083F9908F2D90E038
:100180000E943212892BC9F7FDE2FF1621F4F99083
:10019000EE24E39405C02BE2F21609F4F990EE2464
:1001A0008E0101501040C80162EC70E043E050E065
:1001B0000E940F02892B01F58E010E5F1F4FC801AF
:1001C00065EC70E045E050E00E940F02892B19F4C5
:1001D0008E01095F1F4FA114B10419F0F5011183BD
:1001E0000083E0FC04C070E090E080E814C070E0A0
:1001F00090E080E86FEF08C1C8016AEC70E043E06E
:1002000050E00E940F02892B69F4A114B10429F473
:1002100070E090E080EC6FE7F7C02296F501D183A3
:10022000C083F6CF8824992440E050E060E070E07D
:10023000EF2DE053EA30A0F5F2E0EF2A8E2D90E0AA
:100240009C0128703070E2FE06C0232B79F50894DB
:10025000811C911C2BC0232B19F008948108910854
:10026000DB01CA0112E0880F991FAA1FBB1F1A9554
:10027000D1F7480F591F6A1F7B1F440F551F661F78
:10028000771F4E0F511D611D711D483929E9520715
:1002900029E9620729E1720748F084E0E82A06C0EC
:1002A000EE3F31F4E3FC39C098E0E92AF990C0CF81
:1002B000E53311F0E53189F529912D3219F4E0E1AA
:1002C000EE2A05C02B3219F081E090E003C029919D
:1002D00082E090E0E22FE053EA3018F0C81BD90B1F
:1002E0001CC020E030E0FCE020383F075CF4C9018E
:1002F000880F991F880F991F280F391F220F331F4E
:100300002E0F311DE991E053EA3068F3E4FE03C09B
:10031000309521953F4F820E931ECE2CDD24E1FEB9
:1003200007C0A114B10421F02197F501D183C08346
:10033000CB01BA010E9494107B018C01F3E0CF2223
:10034000DD2423E0C216D10421F417FB109517F920
:10035000109557016801C801B70120E030E040E086
:1003600050E00E949010882309F44AC097FE0DC007
:1003700021EEE22E20E0F22E909481949108939445
:10038000C0E2D0E000E010E012C099EFE92E90E06A
:10039000F92EF6CFF7012591359145915491C6017B
:1003A000B5010E9446115B016C018C1A9D0A8C16E6
:1003B0009D0684F7D595C7950F5F1F4F0630110531
:1003C00029F08CEF9FEFE80EF91EF1CFC501D601A1
:1003D0007C018D018C2D880F8D2D881F8F3F51F052
:1003E000C601B50120E030E040E050E00E949010EE
:1003F000882331F482E290E090936805809367054A
:100400007E2D9F2D802F612F272F392F482F562F7C
:10041000B901CA01CDB7DEB7ECE00C945F12FB0165
:10042000DC014150504088F08D9181341CF08B35B7
:100430000CF4805E659161341CF06B350CF4605EE9
:10044000861B611171F3990B0895881BFCCFFC0189
:1004500081E594E0918380836283089520E0FC012C
:1004600082818F3F09F021E0822F0895FC01828173
:100470000E944E080895EF92FF920F931F93CF931F
:10048000DF93EC018A818F3F89F10E94AB040E94C7
:10049000220F7B018C018A810E944E08882301F182
:1004A0000E94220F6E197F09800B910B685E7340CA
:1004B00080409040A8F461E070E080E090E00E940D
:1004C000300FE9CF8A810E94DA04EA81F0E0EE0F72
:1004D000FF1FE459FB4F118210828FEF8A8306C001
:1004E0008A810E944E08882381F3ECCFDF91CF915F
:1004F0001F910F91FF90EF900895FC0182818F3F33
:1005000019F420E030E003C00E9498089C01C90162
:100510000895CF93DF93EC018A810E944E088431C5
:1005200071F0882361F0883151F08C3131F4CE01C3
:100530000E947D0220E0892B19F021E001C020E01B
:10054000822FDF91CF9108950F931F93DF93CF9365
:100550000F92CDB7DEB78C010E947D02892B19F472
:100560002FEF3FEF0CC0F8018281BE016F5F7F4F1C
:1005700041E050E00E945D058981282F30E0C901EB
:100580000F90CF91DF911F910F910895FC0182810F
:100590008F3F11F00E9481050895DF93CF930F9252
:1005A000CDB7DEB76983FC0182818F3F39F0BE0190
:1005B0006F5F7F4F41E050E00E9481050F90CF9127
:1005C000DF910895FC0182818F3F51F0DB010D9096
:1005D0000020E9F71197A61BB70BAD010E9481051A
:1005E0000895AF92BF92CF92DF92EF92FF920F9356
:1005F0001F937B016A0159010E94C60785E565E5E5
:100600000E949106C7010E940608C6010E94300898
:10061000C5010E94CA07C8010E94E8071F910F91F7
:10062000FF90EF90DF90CF90BF90AF900895FC01C6
:100630008BE594E091838083738362830895DF93D5
:10064000CF930F92CDB7DEB7FC016983A081B18152
:1006500014962D913C911597BE016F5F7F4F41E03D
:1006600050E0F90109950F90CF91DF910895CF9354
:10067000DF93DB010D900020E9F71197A61BB70B64
:10068000EC01E881F9810480F581E02DAD01099547
:10069000DF91CF910895CF92DF92EF92FF920F9367
:1006A0001F93DF93CF93CDB7DEB727970FB6F8949C
:1006B000DEBF0FBECDBF6C0100E010E07E010894EC
:1006C000E11CF11CC701602F0E942702C7010E9494
:1006D00036028823B1F4F60142815381802F61E014
:1006E00020E00E94F904802F0E94BE04000F111F19
:1006F00004591B4FF60182819381F8019183808315
:1007000005C00F5F1F4F04301105E1F627960FB6A5
:10071000F894DEBF0FBECDBFCF91DF911F910F9137
:10072000FF90EF90DF90CF9008958F929F92AF92BD
:10073000BF92DF92EF92FF920F931F93DF93CF93BD
:10074000CDB7DEB727970FB6F894DEBF0FBECDBF8B
:100750004C010CE614E0AA24BB24DD247E0108949D
:10076000E11CF11CC7016D2D0E942702F8012081B8
:100770003181F4018281938128173907B1F4C701CF
:100780000E943602843121F491E0A92EB12C0DC0D3
:10079000C7010E9436028C3141F4C7010E947D02DC
:1007A000892B19F4C7010E943B02D3940E5F1F4F9F
:1007B000F4E0DF16B9F6AB2819F4C4010E944B032C
:1007C00027960FB6F894DEBF0FBECDBFCF91DF9155
:1007D0001F910F91FF90EF90DF90BF90AF909F908F
:1007E0008F9008956F927F928F929F92AF92BF9257
:1007F000CF92DF92FF920F931F93DF93CF93CDB7EA
:10080000DEB727970FB6F894DEBF0FBECDBF5C01F1
:100810003B014A010E9495030CE614E0FF246E019F
:100820000894C11CD11CC6016F2D0E942702F8013B
:1008300020813181F501828193812817390751F494
:10084000C6010E943602873129F4C601B301A40112
:100850000E94C602F3940E5F1F4FF4E0FF1619F7D3
:1008600027960FB6F894DEBF0FBECDBFCF91DF91B4
:100870001F910F91FF90DF90CF90BF90AF909F900E
:100880008F907F906F9008959F92AF92BF92CF927A
:10089000DF92EF92FF920F931F93DF93CF93CDB729
:1008A000DEB727970FB6F894DEBF0FBECDBFE82E98
:1008B000992E5B01CB010E9495030CE614E0FF2406
:1008C0006E010894C11CD11CC6016F2D0E94270225
:1008D000F80120813181F501828193812817390740
:1008E000D9F4C6010E9436028731B1F4C6010E94D4
:1008F0007D02892B89F0EE2DF92D81E594E091831D
:1009000080838B8182838C819D81948383838E817C
:100910009F81968385830BC0F3940E5F1F4FF4E095
:10092000FF1691F68E2D992D6FEF0E9427028E2DC6
:10093000992D27960FB6F894DEBF0FBECDBFCF918D
:10094000DF911F910F91FF90EF90DF90CF90BF90BC
:10095000AF909F900895CF93DF9390E0D82FCC274E
:10096000CF5FDB4FCE0168E00E94FA05CE010E9406
:1009700019068823D9F7DF91CF910895CF93DF939C
:1009800090E00496D82FCC27CE0103960E9419063A
:10099000833111F080E00BC02196CE0162E00E940D
:1009A000FA05CE010E9419068823D9F781E0DF916C
:1009B000CF9108950F931F93CF93DF93082F10E0EB
:1009C0000C5F1F4FD02FCC272196CE0160E10E94F3
:1009D000FA05CE010E9419068823D9F7902F88279F
:1009E00002966FEF0E94FA05DF91CF911F910F9150
:1009F0000895CF92DF92EF92FF920F931F93CF93C0
:100A0000DF93082FE62EEA01F22E862F81508530E3
:100A100010F080E049C0802F0E94DA0410E00C5FE3
:100A20001F4FD02ECC24FE28C6016F2D0E94FA0540
:100A3000B6E0000F111FBA95E1F7209771F00F5F34
:100A40001F4F000F111F000F111FC8016D2F0E94B3
:100A5000FA05C80101966C2F18C0209175043091D9
:100A600076042F5F3F4F30937604209375040F5F19
:100A70001F4F000F111F000F111FC801632F0E948D
:100A8000FA05C8010196609175040E94FA05860175
:100A90000F5F1F4FC80161E00E94FA05C8010E9464
:100AA00019068823D9F781E0DF91CF911F910F912B
:100AB000FF90EF90DF90CF900895FF920F931F93D8
:100AC000CF93DF93F82E8A014115510519F440E0C8
:100AD00050E010C00E94B509DF2DC0E0CF5FDB4FB2
:100AE000CE0160E40E94FA05CE010E941906882317
:100AF000D9F7A801CA01DF91CF911F910F91FF9003
:100B000008956F927F928F929F92BF92CF92DF92C1
:100B1000EF92FF920F931F93CF93DF93B82E3B0179
:100B2000EA010E94F1058C179D0710F08E0104C0A8
:100B30008B2D0E94F1058C01EB2CFF2484E090E0CA
:100B4000E80EF91EDE2CCC2453E0852E912C8C0C63
:100B50009D1C8B2D0E945608EC01C4010E941906B1
:100B6000873129F08C3119F000E010E003C0C01784
:100B7000D10778F38B2DB301A8010E942609E60165
:100B80002196CE0160E20E94FA05CE010E9419066C
:100B90008823D9F70BC0C4010E941906882349F4A1
:100BA0008B2D0E94DA0400E010E00CC0DE2DCC2773
:100BB0002296CE010E94190684FFEDCFCE0160E19E
:100BC0000E94FA05C801DF91CF911F910F91FF900C
:100BD000EF90DF90CF90BF909F908F907F906F901D
:100BE0000895E82FF0E0EE0FFF1FE957FB4F8081DB
:100BF00091810895282F84B18C6284B92A9A85B195
:100C0000877D85B980E58CBD2A9880EF8EBD0DB4B7
:100C100007FEFDCF9EBD0DB407FEFDCF2EBD0DB46A
:100C200007FEFDCF6EBD0DB407FEFDCF2A9A81E011
:100C30000895282F84B18C6284B92A9A85B1877D62
:100C400085B980E58CBD2A988FE08EBD0DB407FE76
:100C5000FDCF9EBD0DB407FEFDCF2EBD0DB407FE2A
:100C6000FDCF1EBC0DB407FEFDCF8EB52A9A0895A8
:100C7000DC0184B18C6284B92A9A85B1877D85B9FB
:100C800080E58CBD20E030E090EF19C02A989EBD31
:100C90000DB407FEFDCFBEBD0DB407FEFDCFAEBD4A
:100CA0000DB407FEFDCFFB01E20FF31F80818EBD67
:100CB0000DB407FEFDCF2A9A2F5F3F4F11962417E0
:100CC000350720F3CA010895DC0184B18C6284B930
:100CD0002A9A85B1877D85B980E58CBD20E030E01A
:100CE0009FE01AC02A989EBD0DB407FEFDCFBEBD81
:100CF0000DB407FEFDCFAEBD0DB407FEFDCF1EBC8B
:100D00000DB407FEFDCF8EB5FB01E20FF31F80830C
:100D10002A9A2F5F3F4F11962417350718F3CA01FF
:100D200008952F923F924F925F926F927F928F928F
:100D30009F92AF92BF92CF92DF92EF92FF920F936A
:100D40001F93DF93CF9300D000D0CDB7DEB7182F1D
:100D5000062F8BE190E0612F0E94FA058AE190E076
:100D6000602F0E94FA0580E090E4909398048093AD
:100D7000970480E090E69093A00480939F0467E836
:100D800074E08FE894E09C838B83FFE7CF2EF4E040
:100D9000DF2EE7E7EE2EE4E0FE2EAA24BB24662435
:100DA00077248824992440E050E0E12FF0E0FA8392
:100DB000E983202E3324FB0111821082EB81FC8118
:100DC00011821082F0E06F16F0E27F06DCF5898177
:100DD0009A81042E02C0959587950A94E2F7837054
:100DE000907081309105A1F0823091051CF4892B1F
:100DF00039F028C08230910599F0039719F518C091
:100E000080E094E0FB01918380838FEF93E017C033
:100E100080E098E0FB01918380838FEF97E00FC023
:100E200080E090E1FB01918380838FEF9FE007C01A
:100E300080E090E2FB01918380838FEF9FE1F701D7
:100E40009183808390E0891690E299060CF03EC071
:100E5000C101042E02C0959587950A94E2F783702C
:100E6000907081309105A9F0823091051CF4892B96
:100E700039F02CC082309105A9F0039739F51BC0D9
:100E800080E094E0EB81FC81918380838FEF93E09D
:100E90001AC080E098E0EB81FC81918380838FEF22
:100EA00097E011C080E090E1EB81FC819183808329
:100EB0008FEF9FE008C080E090E2EB81FC8191839E
:100EC00080838FEF9FE1F60191838083FB01408057
:100ED0005180EB81FC8100811181A114B104F1F0FA
:100EE000FA01E956FB4FDA01AB57BB4F8D919C914C
:100EF000329122913296820F931F91838083FA015F
:100F0000E156FB4FDA01A357BB4F8D919C91329173
:100F100022913296820F931F918380830894A11CA3
:100F2000B11C6E5F7F4F4E5F5F4F8B819C8102963D
:100F30009C838B83E2E0F0E0CE0EDF1EEE0EFF1E00
:100F4000F4E0AF16B10429F0640C751C800E911EFC
:100F500032CF0F900F900F900F90CF91DF911F9194
:100F60000F91FF90EF90DF90CF90BF90AF909F9048
:100F70008F907F906F905F904F903F902F9008954B
:100F8000682F80E090E80E94FA05089580E80E94AA
:100F9000C00708950F931F938C0181E090E0F80142
:100FA00060810E94FA0582E090E0F80161810E9470
:100FB000FA0583E090E0F80162810E94FA0584E07E
:100FC00090E0F80163810E94FA051F910F91089546
:100FD0000F931F938C0185E090E0F80160810E94DF
:100FE000FA0586E090E0F80161810E94FA0587E049
:100FF00090E0F80162810E94FA0588E090E0F80133
:1010000063810E94FA051F910F9108950F931F931A
:101010008C0189E090E0F80160810E94FA058AE085
:1010200090E0F80161810E94FA058BE090E0F80100
:1010300062810E94FA058CE090E0F80163810E94D1
:10104000FA058DE090E0F80164810E94FA058EE0D7
:1010500090E0F80165810E94FA051F910F910895B3
:101060000F931F938C018FE090E0F80160810E9444
:10107000FA0580E190E0F80161810E94FA0581E1C2
:1010800090E0F80162810E94FA0582E190E0F801A7
:1010900063810E94FA051F910F91089590E0982FA7
:1010A00088278D5F9B4F0E94190608958F929F920B
:1010B000AF92BF92CF92DF92EF92FF920F931F9366
:1010C000CF93DF9390E0982F8827805E9B4F4C0151
:1010D0005C010894A11CB11CC0E0D0E0C4010E94D6
:1010E0001906F82EEE24C5010E9419066701C80EE4
:1010F000D11CC114D10459F0C4010E941906182F43
:1011000000E0C5010E941906E801C80FD11DCC15E9
:10111000DD0521F7CE01DF91CF911F910F91FF9057
:10112000EF90DF90CF90BF90AF909F908F900895F9
:101130008F929F92AF92BF92CF92DF92EF92FF92E7
:101140000F931F93CF93DF9390E00496982F8827F7
:1011500016E2812E912C880E991EB7E2AB2EB12C8F
:10116000A80EB91EC0E0D0E0C4010E941906F82EF6
:10117000EE24C5010E9419066701C80ED11CC114D6
:10118000D10459F0C4010E941906182F00E0C501CE
:101190000E941906E801C80FD11DCC15DD0521F705
:1011A000CE01DF91CF911F910F91FF90EF90DF90D3
:1011B000CF90BF90AF909F908F900895CF92DF9285
:1011C000EF92FF920F931F93CF93DF937B01E9017F
:1011D000E82FF0E0EE0FFF1FDF01A958BB4F8D9104
:1011E0009C914823592387E9C82E84E0D82ECE0E3F
:1011F000DF1ED6012D913C91240F351FE957FB4F7F
:101200000190F081E02DCA018C0F9D1FE817F907AE
:1012100080F48F01041B150BC901A8010E94380638
:10122000C01BD10BF601808191810E0D1F1DB801ED
:1012300001C0C901AE010E943806DF91CF911F9114
:101240000F91FF90EF90DF90CF9008957F928F9253
:101250009F92AF92BF92CF92DF92EF92FF920F9345
:101260001F93782E4B015A01E82EFF2484E090E072
:10127000E80EF91EFE2CEE2424E2C22ED12CCE0C58
:10128000DF1CC6010E941906182F00E085E290E0DD
:10129000E80EF91EC7010E941906080F111D872DBF
:1012A000B401A80195010E94DE080A0D1B1DC601AC
:1012B000612F0E94FA05C701602F0E94FA051F9155
:1012C0000F91FF90EF90DF90CF90BF90AF909F90E5
:1012D0008F907F900895CF92DF92EF92FF920F93BD
:1012E0001F93CF93DF937A01E901E82FF0E0EE0F2F
:1012F000FF1FDF01A158BB4F8D919C91682379237B
:101300004FE9C42E44E0D42ECE0EDF1ED6012D911F
:101310003C91260F371FE157FB4F0190F081E02DE4
:10132000CE01860F971FE817F90788F48F01061B77
:10133000170BC901B701A8010E946406C01BD10B9D
:10134000F601808191810E0D1F1DB80102C0C901F7
:10135000B701AE010E946406DF91CF911F910F91FA
:10136000FF90EF90DF90CF9008957F928F929F92A1
:10137000AF92BF92CF92DF92EF92FF920F931F93A3
:10138000782E4B015A01E82EFF2484E090E0E80E0D
:10139000F91EFE2CEE2468E2C62ED12CCE0CDF1CEA
:1013A000C6010E941906182F00E089E290E0E80EBD
:1013B000F91EC7010E941906080F111D872DB801DB
:1013C000A40195010E946B090A0D1B1DC601612F26
:1013D0000E94FA05C701602F0E94FA051F910F9124
:1013E000FF90EF90DF90CF90BF90AF909F908F9045
:1013F0007F9008958CEA94E060E570E00E94170306
:101400006091B2047091B3048091B4049091B504DA
:1014100024E630E040E050E00E94FD112093B60445
:101420003093B7044093B8045093B9040895CF9211
:10143000DF92EF92FF920F931F93DF93CF93CDB77D
:10144000DEB765970FB6F894DEBF0FBECDBF87E05D
:1014500061E00E94A20F87E060E00E94C20F82E07C
:1014600090E00E945A0F87E061E00E94C20F85E081
:1014700090E00E945A0F87E060E00E94C20F87E070
:1014800060E00E94A20F87E061E020E432E44FE0D8
:1014900050E00E940F10162F072FF82EE92E6093B0
:1014A000BA047093BB048093BC049093BD0424E9F8
:1014B00030E040E050E00E94FD112093BE043093E4
:1014C000BF044093C0045093C104612F702F8F2D2F
:1014D0009E2D2AE330E040E050E00E94FD11209371
:1014E000C2043093C3044093C4045093C5048CE4F5
:1014F00095E00E94E10D4091BE045091BF046091BF
:10150000C0047091C1048CE495E00E94AB0E8CE4A1
:1015100095E060E071E00E94D90D4091C2045091C5
:10152000C3046091C4047091C5048CE495E00E94EA
:10153000AB0E8CE495E065E071E00E94D90D6091FE
:10154000C2047091C3048091C4049091C504209199
:10155000490430914A0440914B0450914C04621B61
:10156000730B840B950B2091B6043091B704409116
:10157000B8045091B90421503040404050400E947E
:10158000FD113093C7042093C6048CE495E06AE013
:1015900071E00E94D90D6091C6047091C7048CE47B
:1015A00095E00E94D20E8CE495E06EE171E00E941D
:1015B000D90D64E670E080E090E00E94300F8E016B
:1015C0000B5F1F4FC8016CEA74E00E944404C8011D
:1015D0000E942E02882309F48CC1FF24F394C801D1
:1015E000102F092F7BC1812F902F0E947D02892B04
:1015F00009F474C1812F902F0E94A402863209F051
:10160000AAC0812F902F0E94A402833209F06DC1DD
:10161000812F902F60E271E00E94080E812F902FA1
:101620000E94A402809333048CE495E06CE371E0A3
:101630000E94D90D8CE495E0609133040E94F80D6E
:1016400081E08093AB041C861D861E861F86FE01EA
:10165000709686E0DF011D928A95E9F79CE0C92E1D
:10166000D12CCC0EDD1E85E0E82EF12CEC0EFD1EFB
:101670008E010A5E1F4FC7010E94A402F6018193EA
:101680006F01E017F107B9F79C8580913404981732
:1016900009F02BC19D8580913504981709F025C16B
:1016A0008091270490912804A0912904B0912A04E4
:1016B00089839A83AB83BC83FE013E967E010894A6
:1016C000E11CF11CD7019E012E5E3F4F81918D934D
:1016D000E217F307D9F78E010F5F1F4FC8010E9471
:1016E000AB006093A7047093A8048093A90490931F
:1016F000AA048CE495E0B8010E94D90DFE0172960F
:101700008191D7018D937D01EC15FD05C9F78E01FF
:101710000F5F1F4FC8010E94AB0060932F047093AE
:10172000300480933104909332048CE495E0B80146
:101730000E94D90DCE0105966DE471E00E94D90D8D
:101740008CE495E06FE571E00E94D90D8CE495E0A2
:101750000E94E10DCAC08A3009F0BDC0FF2019F413
:10176000FF24F394BBC0812F902F66E771E00E94A5
:10177000080E812F902F66E871E00E94080E812FDD
:10178000902F0E94E10D812F902F6EE971E00E9451
:10179000080E812F902F68EC71E00E94080E812FB7
:1017A000902F66E272E00E94080E4091C2045091B0
:1017B000C3046091C4047091C504812F902F0E94CE
:1017C000AB0E812F902F6EE572E00E94D90D812F14
:1017D000902F65E672E00E94080E6091C604709139
:1017E000C704812F902F0E94D20E812F902F0E942C
:1017F000E10D812F902F6EE572E00E94D90D812FAF
:10180000902F6CE972E00E94D90D6091C60470912E
:10181000C704812F902F0E94D20E812F902F67EF47
:1018200072E00E94D90D6091C6047091C704812FA7
:10183000902F0E94D20E812F902F6DEF72E00E94A8
:10184000D90D8CE495E06CE972E00E94D90D6091AD
:10185000C6047091C7048CE495E00E94D20E8CE41B
:1018600095E067EF72E00E94D90D6091C604709117
:10187000C7048CE495E00E94D20E8CE495E06DEFF5
:1018800072E00E94D90D8CE495E00E94E10D812F59
:10189000902F6EE572E00E94D90D812F902F6DE799
:1018A00073E00E94D90D6091B0047091B104812F52
:1018B000902F0E94D20E8091B0049091B1040196B5
:1018C0009093B1048093B004812F902F60ED73E06A
:1018D0000E94D90D0AC08D3009F0FF24812F902F6E
:1018E0000E948902882309F07ECECE0105960E94CF
:1018F0003B0265960FB6F894DEBF0FBECDBFCF9109
:10190000DF911F910F91FF90EF90DF90CF9008959E
:101910000F931F9384E794E067E374E04DE354E092
:1019200021E434E005E414E00E94F10280912B04EC
:1019300061E00E94A20F80912D0461E00E94A20F3D
:101940008CE495E040E855E260E070E00E94EF0C26
:101950001F910F9108950E94680F0E94880C0E94A9
:10196000170AFDCF1F920F920FB60F9211242F93DB
:101970003F934F935F936F937F938F939F93AF9317
:10198000BF93EF93FF934091C600E0914805F0911B
:101990004905CF01019660E870E00E94C8119C01E2
:1019A00080914A0590914B052817390739F0E85383
:1019B000FB4F40833093490520934805FF91EF91F9
:1019C000BF91AF919F918F917F916F915F914F9157
:1019D0003F912F910F900FBE0F901F901895AF92CF
:1019E000BF92CF92DF92EF92FF920F931F93CF930C
:1019F000DF936C017A018B01DC011496AD90BC90F1
:101A00001597CB01BA0122E030E040E050E00E949F
:101A1000FD11205C3D4B404F5F4FCA01B901A80149
:101A200097010E94FD11C901DA010197A109B109CD
:101A3000292F3A2F4B2F552747FD5A950196A11D67
:101A4000B11DE5012883E601EE81FF81815080838D
:101A5000EA85FB85208141E050E0CA010E8402C086
:101A6000880F991F0A94E2F7282B2083EA85FB85CB
:101A70002081CA010F8402C0880F991F0A94E2F7DF
:101A8000282B2083EA85FB858081088802C0440FCB
:101A9000551F0A94E2F7842B8083DF91CF911F9129
:101AA0000F91FF90EF90DF90CF90BF90AF9008958F
:101AB000FC01A085B18521898C9190E0022E02C0A5
:101AC000959587950A94E2F780FFF6CF0484F58513
:101AD000E02D6083089585E694E090934D05809312
:101AE0004C0588EC94E090934F0580934E0585EC6F
:101AF00090E0909351058093500584EC90E0909392
:101B000053058093520580EC90E0909355058093A7
:101B1000540581EC90E0909357058093560586EC30
:101B200090E0909359058093580584E080935A057E
:101B300083E080935B0587E080935C0585E080937C
:101B40005D0508950F931F93CF93DF938C01EB01F5
:101B500009C02196D801ED91FC910190F081E02D12
:101B6000C801099568816623A1F7DF91CF911F9184
:101B70000F910895EF92FF920F931F93CF93DF93EE
:101B80008C017B01EA010CC0D7016D917D01D80168
:101B9000ED91FC910190F081E02DC801099521970C
:101BA000209791F7DF91CF911F910F91FF90EF90C8
:101BB0000895DC01ED91FC910280F381E02D0995FF
:101BC00008950F931F938C01DC01ED91FC9101901E
:101BD000F081E02D6DE00995D801ED91FC91019027
:101BE000F081E02DC8016AE009951F910F910895D9
:101BF0000F931F938C01DC01ED91FC910190F0811A
:101C0000E02D0995C8010E94E10D1F910F910895E3
:101C10000F931F938C010E94D90DC8010E94E10D02
:101C20001F910F9108952F923F924F925F926F9262
:101C30007F928F929F92AF92BF92CF92DF92EF925C
:101C4000FF920F931F93DF93CF93CDB7DEB7A0978B
:101C50000FB6F894DEBF0FBECDBF1C016A017B0139
:101C6000411551056105710549F4DC01ED91FC91C7
:101C70000190F081E02D60E3099554C088249924F7
:101C80005401422E55246624772401E010E00C0F05
:101C90001D1F080D191DC701B601A30192010E9465
:101CA000DB11F80160830894811C911CA11CB11CFC
:101CB000C701B601A30192010E94DB11C901DA013B
:101CC0006C017D01C114D104E104F104F1F681E05D
:101CD000E82EF12CEC0EFD1EE80CF91C3E010894D8
:101CE000611C711CD501C4010197A109B1096C01E6
:101CF000C818D90814C0F601EE0DFF1D60816A30C6
:101D000010F4605D01C0695CD101ED91FC9101901E
:101D1000F081E02DC10109950894E108F1086E14E5
:101D20007F0449F7A0960FB6F894DEBF0FBECDBF73
:101D3000CF91DF911F910F91FF90EF90DF90CF90A7
:101D4000BF90AF909F908F907F906F905F904F90DB
:101D50003F902F900895EF92FF920F931F93CF9390
:101D6000DF93EC017A018B0177FF0FC0E881F981E5
:101D70000190F081E02D6DE2099510950095F094A9
:101D8000E094E11CF11C011D111DCE01B801A70159
:101D90002AE00E94130EDF91CF911F910F91FF90C7
:101DA000EF900895AB01662757FD6095762F0E944E
:101DB000AB0E08951F920F920FB60F9211242F931E
:101DC0003F938F939F93AF93BF93809162059091C0
:101DD0006305A0916405B091650530916605019693
:101DE000A11DB11D232F2D5F2D3720F02D570196FA
:101DF000A11DB11D20936605809362059093630534
:101E0000A0936405B093650580915E0590915F0590
:101E1000A0916005B09161050196A11DB11D80934F
:101E20005E0590935F05A0936005B0936105BF9137
:101E3000AF919F918F913F912F910F900FBE0F9077
:101E40001F9018958FB7F894209162053091630523
:101E500040916405509165058FBFB901CA0108958D
:101E6000EF92FF920F931F937B018C018FB7F89431
:101E7000409162055091630560916405709165051C
:101E80008FBF2FB7F8948091620590916305A09160
:101E90006405B09165052FBF841B950BA60BB70B8E
:101EA000E816F9060A071B0760F71F910F91FF90CC
:101EB000EF900895019759F0FC01EE0FFF1FEE0F10
:101EC000FF1F32978FB7F8943197F1F78FBF0895BE
:101ED000789484B5826084BD84B5816084BD85B505
:101EE000826085BD85B5816085BDEEE6F0E08081CC
:101EF00081608083E1E8F0E080818260808380817E
:101F000081608083E0E8F0E0808181608083E1EBA4
:101F1000F0E0808184608083E0EBF0E0808181608C
:101F20008083EAE7F0E08081846080838081826042
:101F3000808380818160808380818068808310922B
:101F4000C1000895282F30E0C90186569F4FFC013B
:101F500094912A573F4FF9018491882391F0E82FFB
:101F6000F0E0EE0FFF1FE859FF4FA591B4916623F3
:101F700029F48C91909589238C9308958C91892BC9
:101F80008C930895482F50E0CA0182559F4FFC0161
:101F90002491CA0186569F4FFC0194914A575F4F86
:101FA000FA0134913323D1F1222331F1233021F48A
:101FB000809180008F7705C0243031F480918000BB
:101FC0008F7D8093800018C0213019F484B58F77FD
:101FD00004C0223021F484B58F7D84BD0DC026302D
:101FE00021F48091B0008F7705C0273029F48091CB
:101FF000B0008F7D8093B000E32FF0E0EE0FFF1F65
:10200000EE58FF4FA591B491662329F48C919095D9
:1020100089238C9308958C91892B8C930895DF925A
:10202000EF92FF920F931F93A82FB0E0CD01865639
:102030009F4FFC01D490AA57BF4FFD0184916623A6
:1020400011F490E001C09D2D6FEFE62E6FEFF62E9C
:102050006FEF062F6FE0162FE222F32204231523E1
:10206000682F70E0660F771F64587F4F20E030E0E4
:1020700040E050E0FB01A591B4910AC02E153F0548
:102080004007510709F440C02F5F3F4F4F4F5F4F4C
:102090008C918D21891791F30AC02E153F054007B9
:1020A000510791F12F5F3F4F4F4F5F4F03C0FB012F
:1020B000A591B4918C918D21891779F720E030E0BA
:1020C00040E050E0FB01A591B49104C02F5F3F4F69
:1020D0004F4F5F4F8C918D218917C1F3CA01B90110
:1020E0002AE030E040E050E00E94A9119B01AC01E1
:1020F000205F3F4F4F4F5F4F84E056954795379590
:1021000027958A95D1F704C020E030E040E050E008
:10211000B901CA011F910F91FF90EF90DF900895D0
:1021200040D008F481E00895E89409C097FB3EF49C
:1021300090958095709561957F4F8F4F9F4F992314
:10214000A9F0F92F96E9BB279395F6958795779592
:102150006795B795F111F8CFFAF4BB0F11F460FF52
:102160001BC06F5F7F4F8F4F9F4F16C0882311F0AA
:1021700096E911C0772321F09EE8872F762F05C0BE
:10218000662371F096E8862F70E060E02AF09A9559
:10219000660F771F881FDAF7880F9695879597F94E
:1021A0000895990F0008550FAA0BE0E8FEEF1616E8
:1021B0001706E807F907C0F012161306E407F5073B
:1021C00098F0621B730B840B950B39F40A2661F0AF
:1021D000232B242B252B21F408950A2609F4A14052
:1021E000A6958FEF811D811D089597F99F6780E85F
:1021F00070E060E008959FEF80EC089500240A9459
:102200001616170618060906089500240A941216D1
:102210001306140605060895092E0394000C11F404
:10222000882352F0BB0F40F4BF2B11F460FF04C0B1
:102230006F5F7F4F8F4F9F4F089557FD9058440F0A
:10224000551F59F05F3F71F04795880F97FB991F15
:1022500061F09F3F79F087950895121613061406D2
:10226000551FF2CF4695F1DF08C01616170618065F
:10227000991FF1CF86957105610508940895E8943A
:10228000BB2766277727CB0197F908950BD0C4CFDA
:10229000B5DF28F0BADF18F0952309F0A6CFABCF51
:1022A0001124EECFCADFA0F3959FD1F3950F50E034
:1022B000551F629FF001729FBB27F00DB11D639FF8
:1022C000AA27F00DB11DAA1F649F6627B00DA11D9E
:1022D000661F829F2227B00DA11D621F739FB00D44
:1022E000A11D621F839FA00D611D221F749F3327B4
:1022F000A00D611D231F849F600D211D822F762F4D
:102300006A2F11249F5750408AF0E1F088234AF049
:10231000EE0FFF1FBB1F661F771F881F9150504095
:10232000A9F79E3F510570F060CFAACF5F3FECF355
:10233000983EDCF3869577956795B795F795E79581
:102340009F5FC1F7FE2B880F911D9695879597F992
:102350000895629FD001739FF001829FE00DF11DEF
:10236000649FE00DF11D929FF00D839FF00D749F0F
:10237000F00D659FF00D9927729FB00DE11DF91FBB
:10238000639FB00DE11DF91FBD01CF011124089518
:1023900097FB092E07260AD077FD04D049D006D036
:1023A00000201AF4709561957F4F0895F6F7909587
:1023B00081959F4F0895A1E21A2EAA1BBB1BFD0118
:1023C0000DC0AA1FBB1FEE1FFF1FA217B307E40714
:1023D000F50720F0A21BB30BE40BF50B661F771F6C
:1023E000881F991F1A9469F760957095809590954C
:1023F0009B01AC01BD01CF01089597FB092E052675
:102400000ED057FD04D0D7DF0AD0001C38F4509509
:102410004095309521953F4F4F4F5F4F0895F6F708
:1024200090958095709561957F4F8F4F9F4F089540
:10243000AA1BBB1B51E107C0AA1FBB1FA617B707EA
:1024400010F0A61BB70B881F991F5A95A9F7809506
:102450009095BC01CD010895EE0FFF1F0590F491FA
:10246000E02D0994911106C0803219F089508550F1
:10247000D0F708959927882708952F923F924F9279
:102480005F926F927F928F929F92AF92BF92CF9204
:10249000DF92EF92FF920F931F93CF93DF93CDB70D
:1024A000DEB7CA1BDB0B0FB6F894DEBF0FBECDBF85
:1024B00009942A88398848885F846E847D848C8456
:1024C0009B84AA84B984C884DF80EE80FD800C815F
:1024D0001B81AA81B981CE0FD11D0FB6F894DEBF42
:0C24E0000FBECDBFED010895F894FFCFB2
:1024EC00696E2C2000636D2C2000203D3E2063750E
:1024FC0076652072656D706C696520612000250021
:10250C004F6B2C20676F7420697421205365747491
:10251C00696E67206D6F64652E2E2E00496E707586
:10252C00742066726F6D207765623A2000436F727B
:10253C007265637420696E73657274696F6E00499D
:10254C006E73657274696F6E2066726F6D2074683D
:10255C00652057656200485454502F312E3120327B
:10256C003030204F4B00436F6E74656E742D547970
:10257C0070653A20746578742F68746D6C003C74C7
:10258C0069746C653E496E6469636174657572202B
:10259C006465206E69766561752064276561753C9C
:1025AC002F7469746C653E003C666F6E74206661B6
:1025BC0063653D27617269616C20626C61636B2796
:1025CC0020636F6C6F723D27626C61636B272073A5
:1025DC00697A653D2735273E494E44494341544568
:1025EC005552204445204E495645415520442745D7
:1025FC0041553C2F666F6E743E3C6272202F3E3C00
:10260C006272202F3E003C666F6E742066616365BB
:10261C003D27617269616C2720636F6C6F723D2777
:10262C00626C7565273E4E697665617520616374D1
:10263C0075656C2028656E20636D293A20003C621C
:10264C0072202F3E003C666F6E7420666163653DA0
:10265C0027617269616C2720636F6C6F723D276212
:10266C006C7565273E4E697665617520616374757E
:10267C00656C2028656E2025293A20003C4946527D
:10268C00414D45205352433D22687474703A2F2FAC
:10269C0063686172742E617069732E676F6F676CFB
:1026AC00652E636F6D2F63686172743F6368733D51
:1026BC0033303078313830266368663D62672C736E
:1026CC002C666666666666266368743D676F6D2663
:1026DC006368643D743A002663686C3D002526638C
:1026EC0068636F3D3030666630302C6666666630E7
:1026FC00302C6666363630302C6666303030302200
:10270C002057494454483D353030204845494748C6
:10271C00543D3230303E20496620796F752063611C
:10272C006E2073656520746869732C20796F7572DF
:10273C002062726F7773657220646F65736E277495
:10274C0020756E6465727374616E642049465241E3
:10275C004D452E3C2F494652414D453E003C627240
:10276C003E3C666F6E7420666163653D27617269DD
:10277C00616C2720636F6C6F723D27626C756527E7
:10278C003E4E6F6D62726520646520766964616E81
:10279C006765732063757665206465707569732051
:1027AC006D69736520656E20726F7574653A2000D3
:1027BC003C62723E3C62723E3C666F6E7420666197
:1027CC0063653D27636F75726965722720636F6C53
:1027DC006F723D27626C61636B272073697A653D6C
:1027EC002731273E3C693E436F7079726967687484
:1027FC0020502E204C696E646572202D20323030B2
:10280C00392E3C2F693E000000000004000500003A
:10281C0000004032434800DEADBEEFFEEDC0A80024
:10282C0063C0A80001FFFFFF00BE00000000000015
:10283C0000CD02E202C602000000001F033703F2C3
:0C284C000300000000580DA20DBA0D00A2
:00000001FF
